:100000000C943A000C9444000C9444000C9444006A
:100010000C9444000C9444000C9444000C94440050
:100020000C9444000C9444000C9444000C94440040
:100030000C9444000C9444000C9444000C94440030
:100040000C9444000C9444000C9444000C94440020
:100050000C9444000C9444000C9444000C94440010
:100060000C9444000C9444000C9444000C94440000
:100070000C94440011241FBECFEFD4E0DEBFCDBFEF
:100080000E946A000C947A000C940000E1E6F0E013
:1000900080E880831082A89584B7877F84BFE0E6DC
:1000A000F0E08081886180831082089589B1082EF4
:1000B000000C990B892F881F8827881F90E00895CE
:1000C0008BB11BB808953A9A089587B117B808956F
:1000D000429A08950E9446000E9468000E946000B3
:1000E0000E945600892B19F00E946300F9CF0E94EC
:0800F0006500F6CFF894FFCF84
:00000001FF
