:100000000C943A000C9444000C9444000C9444006A
:100010000C9444000C9444000C9444000C94440050
:100020000C9444000C9444000C9444000C94440040
:100030000C9444000C9444000C9444000C94440030
:100040000C9444000C9444000C9444000C94440020
:100050000C9444000C9444000C9444000C94440010
:100060000C9444000C9444000C9444000C94440000
:100070000C94440011241FBECFEFD4E0DEBFCDBFEF
:100080000E9484000C94F5000C940000E1E6F0E07E
:1000900080E880831082A89584B7877F84BFE0E6DC
:1000A000F0E080818861808310820895811105C00D
:1000B000662311F0429A0895429808953A9A429A16
:1000C00008951092800085E0809381001092820054
:1000D0000895BC0180E090E024E83EE140E050E07B
:1000E0000E949B0028EE33E040E050E00E94B40004
:1000F0001092850010928400809184009091850078
:1001000082179307C8F308950E9446000E945E007C
:100110000E94610061E080E00E94560084EF91E05F
:100120000E94690060E080E00E94560084EF91E048
:100130000E946900EFCFEE27FF27AA27BB2708C040
:10014000A20FB31FE41FF51F220F331F441F551FBB
:10015000969587957795679598F37040A9F70097DE
:1001600099F7BD01CF010895052E97FB1EF4009469
:100170000E94CB0057FD07D00E94D30007FC03D09C
:100180004EF40C94CB0050954095309521953F4FFF
:100190004F4F5F4F089590958095709561957F4F73
:1001A0008F4F9F4F0895A1E21A2EAA1BBB1BFD0182
:1001B0000DC0AA1FBB1FEE1FFF1FA217B307E40746
:1001C000F50720F0A21BB30BE40BF50B661F771F9E
:1001D000881F991F1A9469F760957095809590957E
:0E01E0009B01AC01BD01CF010895F894FFCF43
:00000001FF
