:100000000C943A000C9444000C9444000C9444006A
:100010000C9444000C9444000C9444000C94440050
:100020000C9444000C9444000C9444000C94440040
:100030000C9444000C9444000C9444000C94440030
:100040000C9444000C9444000C9444000C94440020
:100050000C9444000C9444000C9444000C94440010
:100060000C9444000C9444000C9444000C94440000
:100070000C94440011241FBECFEFD4E0DEBFCDBFEF
:100080000E946D000C9489000C9400001092850071
:100090001092840020918400309185002817390740
:1000A000C8F30895E1E6F0E080E880831082A89527
:1000B00084B7877F84BFE0E6F0E080818861808339
:1000C00010820895811105C0662311F0429A0895A7
:1000D000429808953A9A429A08950E9452000E94C6
:1000E0006A001092800085E0809381001092820067
:1000F00061E080E00E94620083E290E00E9446009E
:1001000060E080E00E94620089E690E00E94460084
:06011000EFCFF894FFCFD1
:00000001FF
