:100000000C943A000C9457000C9457000C94570031
:100010000C9457000C9457000C9457000C94570004
:100020000C9457000C9457000C9457000C945700F4
:100030000C9457000C9457000C9457000C945700E4
:100040000C9457000C9457000C9457000C945700D4
:100050000C9457000C9457000C9457000C945700C4
:100060000C9457000C9457000C9457000C945700B4
:100070000C94570011241FBECFEFD4E0DEBFCDBFDC
:1000800011E0A0E0B1E0E6E1F3E002C005900D92DE
:10009000AE31B107D9F721E0AEE1B1E001C01D9268
:1000A000A232B207E1F70E94CA000C9489010C94B5
:1000B00000009C01FC01FF2795A1892F832B85A3BC
:1000C00008959C01FC01FF2784A1832B84A395A1A3
:1000D000892F832B85A381E00895E1E6F0E080E895
:1000E00080831082A89584B7877F84BFE0E6F0E024
:1000F000808188618083108208951092800084E05E
:100100008093810010928500109284000895809160
:100110008400909185000895AC01809184009091B5
:1001200085009C01241B350B283E3340B0F7089511
:100130002091840030918500820F931F0C948C00D5
:10014000CF93DF93EC010E947D009E0140E050E0E0
:1001500062E17AE780E090E00E944801309321015B
:1001600020932001DF91CF91089580911E019091FD
:100170001F010E948C0020911E0130911F0180916F
:10018000200190912101820F931F90931F01809372
:100190001E0108950E946D0084EF91E00E94A0006E
:1001A000C0E1D1E0899199910E94610081E0CE3156
:1001B000D807C1F783E090E40E94610080E090E8F6
:1001C0000E94610083E090E10E94610083E090E87A
:1001D0000E94610083E090E20E94610010E00E94B2
:1001E000B500C12FD0E0FE01EF5FFE4FA08000916F
:1001F0000001E02FF0E0EE0FFF1FEA5FFE4FE0800E
:10020000F180C7010E94590020E1822E21E0922E48
:10021000C12CD12CB12CC5010C2C02C09595879511
:100220000A94E2F7F40180FF09C080819181FC010A
:10023000FF2785A19095892385A304C080819181A2
:100240000E945900FFEFCF1ADF0A82E0880E911C4E
:10025000E7E0CE16D104F9F6CC0FDD1FCA5FDE4F02
:1002600088819981FC01FF2785A19095892385A329
:10027000C7010E9459000F5F053018F40093000178
:1002800002C0109200011F5F153008F4A8CFA6CF5E
:10029000052E97FB1EF400940E945F0157FD07D0C6
:1002A0000E94670107FC03D04EF40C945F01509547
:1002B0004095309521953F4F4F4F5F4F0895909552
:1002C0008095709561957F4F8F4F9F4F0895A1E264
:1002D0001A2EAA1BBB1BFD010DC0AA1FBB1FEE1FC0
:1002E000FF1FA217B307E407F50720F0A21BB30B0B
:1002F000E40BF50B661F771F881F991F1A9469F787
:1003000060957095809590959B01AC01BD01CF01E2
:060310000895F894FFCFF0
:10031600043046404630034000800310038003202B
:0E03260000400020001000080004000200014A
:00000001FF
