:100000000C943A000C9457000C9457000C94570031
:100010000C9457000C9457000C9457000C94570004
:100020000C9457000C9457000C9457000C945700F4
:100030000C9457000C9457000C9457000C945700E4
:100040000C9457000C9457000C9457000C945700D4
:100050000C9457000C9457000C9457000C945700C4
:100060000C9457000C9457000C9457000C945700B4
:100070000C94570011241FBECFEFD4E0DEBFCDBFDC
:1000800013E0A0E0B1E0E0E7F9E002C005900D92D6
:10009000A033B107D9F723E0A0E3B3E001C01D927C
:1000A000AD33B207E1F70E940A040C94B6040C9435
:1000B0000000E1E6F0E080E880831082A89584B734
:1000C000877F84BFE0E6F0E08081886180831082D2
:1000D00008951092800084E0809381001092850042
:1000E0001092840008958091840090918500089575
:1000F000AC0180918400909185009C01241B350BFC
:10010000283E3340B0F70895209184003091850057
:10011000820F931F0C947800853098F4673088F430
:1001200021E030E001C0220F6A95EAF7E82FF0E005
:10013000EF5CFC4F922F9095808189234111822B97
:1001400080830895853080F4673070F421E030E0DA
:1001500001C0220F6A95EAF7E82FF0E0EF5CFC4F50
:100160008081282381E009F480E0089560913003C4
:10017000E62FF0E0EF5CFC4F80810E94040180914B
:1001800030038F5F853018F4809330030895109208
:1001900030030895E1E3F3E01082118212821382AA
:1001A000148208950E94E2000C94CA009C01FC0194
:1001B000FF2784A1832B84A395A1892F832B85A35B
:1001C00081E00895CF93DF93CCE1D3E089919991B9
:1001D0000E94D60083E0CA32D807C1F783E090E4DA
:1001E0000E94D60080E090E80E94D60083E090E173
:1001F0000E94D60083E090E80E94D60083E090E25F
:10020000DF91CF910C94D600E0913603F0E0EE0F31
:10021000FF1FEE5EFC4F20813181F901FF2795A180
:10022000932B95A3ECE1F3E097E020813181D90194
:10023000BB2795962C91959780FF03C0309523237B
:1002400001C0232B95962C9386959150329691114F
:10025000ECCFE62FF0E0EE0FFF1FEE5EFC4F80814B
:100260009181FC01FF2785A19095892385A3609347
:1002700036030895009789F0FC012381621B67FD16
:1002800009C0062E000C770B248130E081E0621754
:1002900073070CF080E08170089580E00895CF939B
:1002A000DF93FC01892B79F18181481760F59281F8
:1002B000291748F59381A62FA91BA7FD24C00A2E54
:1002C000000CBB0BC481D0E0AC17BD07E4F4622F77
:1002D0000E943804480F858190E0BD010E944104CE
:1002E0000696242F269526952695E80FF91FE20FEE
:1002F000F11D808190E0477002C0959587954A95E1
:10030000E2F7817001C080E0DF91CF910895CF9333
:10031000DF93EC010E9469009E0140E050E062E141
:100320007AE780E090E00E94660430933A032093DD
:100330003903DF91CF91089580913703909138036D
:100340000E9478002091370330913803809139035F
:1003500090913A03820F931F909338038093370351
:100360000895692F0C94A20041E0611101C040E0A2
:10037000692F0C948C000C94B4015F926F927F9261
:100380008F929F92AF92BF92CF92DF92EF92FF92A5
:100390000F931F93CF93DF93562E872E942E5C01DD
:1003A000E62EF72EC62F660FDD0BC81BD10987FD81
:1003B000D395072F770F110B091B110997FD139583
:1003C000D7FF03C077247A9402C07724739417FF71
:1003D00003C066246A9402C066246394D7FF03C0F6
:1003E000D195C195D10917FF03C011950195110948
:1003F000C017D107A4F06E01D594C794F92EA514A7
:1004000011F1692D8A2D9F2D0E94B401C01AD10AC5
:10041000D7FE03C0CC0EDD1EF60CA70CF0CF680192
:10042000D594C794E82EB81471F0692D8E2D9B2DAC
:100430000E94B401CC1ADD0AD7FE03C0C00ED11E43
:10044000E70CB60CF0CF692DC701DF91CF911F915A
:100450000F91FF90EF90DF90CF90BF90AF909F9063
:100460008F907F906F905F900C94B401FF920F93E8
:100470001F93CF93DF93D82FF92E162FC72F042F5A
:10048000792F0E94BD01402F6D2F7C2F8D2F9F2D26
:100490000E94BD01402F612F7C2F812F9F2D0E9434
:1004A000BD01402F612F7C2F8D2F9C2F0E94BD01FD
:1004B000DF91CF911F910F91FF9008950E94CA0084
:1004C000E0E0F1E0118A14860895DF92EF92FF9246
:1004D0000F931F93CF93DF93D82E7B01162F0F2DF1
:1004E0008091020190910301D0E0019799F50F2DC1
:1004F0000D1BE0910801F09109018181C0E0D8173E
:10050000B8F48091080190910901FC012281C21781
:1005100068F42C2F4D2F6D2D0E944F01682F8E2DCA
:100520008C0F902F0E94B401CF5FEBCFDF5FDFCF46
:10053000E0910801F09109018281C81740F460E060
:100540008E2D8C0F902F0E94B401CF5FF1CF015000
:1005500030C0DF5F1E2D1D0FE0910801F0910901F1
:100560008181C0E0D817A8F4809108019091090119
:10057000FC012281C21768F72C2F4D2F6D2D0E9490
:100580004F01682F812F9F2D9C0F0E94B401CF5FD8
:10059000EBCFE0910801F09109018281C81740F486
:1005A00060E0812F9F2D9C0F0E94B401CF5FF1CF9F
:1005B0001F5F812F902FDF91CF911F910F91FF909F
:1005C000EF90DF9008950F931F93CF938C01C0E0BD
:1005D000F80181918F01882341F00E946502BC01DE
:1005E000CF5F853014F477FFF3CF8C2FCF911F911D
:1005F0000F9108950F931F93CF93DF9310920C01E7
:1006000040930D0110921001009108011091090111
:100610000115110509F449C09B01EC01F801818124
:10062000609106017091070190E00E944104BC01B5
:1006300080910A0190910B010E945204CB016AE063
:1006400070E00E94410490930F0180930E0130935B
:1006500005012093040140E250E0BE0181E191E0F8
:100660000E94A70480910001909101010197E9F493
:10067000FE0101900020E9F73197BF016C1B7D0B53
:10068000F80181818F5F0E9438048150209102011E
:10069000309103012130310511F095E001C097E060
:1006A000981718F48EEF80931001DF91CF911F916E
:1006B0000F910895209102013091030121303105FD
:1006C00011F070E001C076E04FEF60E00E94FA02A6
:1006D000089590E090930701809306010895909308
:1006E000010180930001089590930301809302011A
:1006F00008959093090180930801089580913B0328
:1007000090913C03019690933C0380933B0320918E
:100710000E0130910F018217930708F469C01092FF
:100720003C0310923B03E0910C01F0E0E050FF4FDE
:10073000818981110AC080910D01823008F458C06E
:10074000815080930D0110920C0180910C0190E07A
:10075000FC01E050FF4F2189222309F449C0409158
:10076000000150910101209110014115510521F026
:100770004130510599F024C0211122C0609104013B
:10078000709105018F5E9E4F0E94E30290E00197F9
:1007900090910C01890F80930C0112C060910401AB
:1007A00070910501409102015091030141305105C2
:1007B00011F4720F01C0621B8F5E9E4F0E94E30214
:1007C000809110018F5F80931001082E000C990B0F
:1007D000E0910801F0910901218130E028173907E3
:1007E0003CF41092100180910C018F5F80930C01FA
:1007F0000C94B600CF93DF93C0E0D1E09B878A874B
:100800000E94D20084E190E09F838E83DF91CF919C
:100810000C945E02CF93DF9300D000D01F92CDB72F
:10082000DEB70E94590084EF91E00E94FA0381E351
:1008300091E00E9479038AE00E94690381E090E0E0
:100840000E946F0385E0EAE2F3E0DE011196019079
:100850000D928A95E1F7CE0101960E945A0384EF2A
:1008600091E00E9487010E949C010E947E03FBCFC1
:10087000002480FD060E660F11F08695D1F7802DBD
:1008800008950024552704C0080E591F880F991F8A
:10089000009729F076956795B8F37105B9F7802D23
:1008A000952F0895AA1BBB1B51E107C0AA1FBB1FB0
:1008B000A617B70710F0A61BB70B881F991F5A95EC
:1008C000A9F780959095BC01CD010895052E97FB61
:1008D0001EF400940E947D0457FD07D00E948504F9
:1008E00007FC03D04EF40C947D0450954095309550
:1008F00021953F4F4F4F5F4F08959095809570958C
:1009000061957F4F8F4F9F4F0895A1E21A2EAA1B2A
:10091000BB1BFD010DC0AA1FBB1FEE1FFF1FA217AF
:10092000B307E407F50720F0A21BB30BE40BF50BAC
:10093000661F771F881F991F1A9469F76095709535
:10094000809590959B01AC01BD01CF010895FB01FD
:10095000DC014150504048F001900D920020C9F751
:1009600001C01D9241505040E0F70895F894FFCF28
:100970000000000000001400000000000000000063
:100980000000000000000000000000000000000067
:100990000000000000000000000000000000000057
:1009A00000010507205F050000000000C6186380F5
:1009B000014A290000004A7DF59502C417471F012E
:1009C000632222320626155193058608000000880E
:1009D00008210802822084880080545709008090F2
:1009E0004F0800000060880000800F000000000039
:1009F0008C0100222202002EE63AA303C410428892
:100A0000032E4244C4072E4207A30388A9F411020F
:100A10003F8407A3032E8617A3033F424408012EF9
:100A20004617A3032E460FA303C018600C00C0187E
:100A30006088008888200802007CF00100822088FD
:100A400088002E424400012E425BAB0344C51F6365
:100A5000042FC617E3032E8610A2032FC618E30344
:100A60003F8417C2073F841742002E861EA307311A
:100A7000C61F63048E10428803104218A3033195E9
:100A8000515204218410C20771D71A630471D61C15
:100A900063042EC618A3032FC61742002EC6589310
:100AA000052FC61763042E0607A3039F10420801F3
:100AB00031C618A30331C618150131C65AAB02312D
:100AC0002AA26204312A4208011F2222C207278477
:100AD00010C20120088220000E21849003444500AA
:100AE0000000000000C00782200000000038E8A3DA
:100AF0000721B419E30300B810A20310DA1CA307FE
:100B000000B8F883034C8A238400C0C7E8A10321FE
:100B1000B41963040418428803083084920121A4A4
:100B2000324A02861042880300AC5A630400B419AA
:100B3000630400B818A30300BCF8420000D8EC21FD
:100B40000400B419420000B8E0E003421C21240371
:100B500000C418B30500C418150100C45AAB020044
:100B60004445540400C4E8A103007C44C407881031
:100B70004108028410420801821044880000888ADB
:100B80000000034000800310038003200040002089
:100B90000010000800040002000148495421000030
:00000001FF
