:100000000C943A000C9444000C9444000C9444006A
:100010000C9444000C9444000C9444000C94440050
:100020000C9444000C9444000C9444000C94440040
:100030000C9444000C9444000C9444000C94440030
:100040000C9444000C9444000C9444000C94440020
:100050000C9444000C9444000C9444000C94440010
:100060000C9444000C9444000C9444000C94440000
:100070000C94440011241FBECFEFD4E0DEBFCDBFEF
:100080000E941B010C9422010C9400009C01FC01B5
:10009000FF2795A1832F8095892385A308959C012F
:1000A000FC01FF2784A1832B84A395A1892F832B97
:1000B00085A381E0089580E090E40E94460080E0FE
:1000C00090E20E94460080E090E10E94460080E0BD
:1000D00098E00E94460080E094E00E94460080E0A4
:1000E00092E00E94460080E091E00E94460083E09A
:1000F00090E40E94460080E091E00E94460083E088
:1001000090E40E94460080E090E80E94460083E070
:1001100090E10E94460083E090E80E94460083E060
:1001200090E20C94460080E090E40E94460083E058
:1001300090E40E94460080E090E20E94460080E049
:1001400090E80C94460080E090E20E94460083E034
:1001500090E40E94460080E092E00E94460083E026
:1001600090E20C94460083E090E40E944F0080E00F
:1001700090E80E944F0083E090E10E944F0083E0EE
:1001800090E80E944F0083E090E20E944F0080E0E0
:1001900090E40E944F0080E090E20E944F0080E0D7
:1001A00090E10E944F0080E098E00E944F0080E0C4
:1001B00094E00E944F0080E092E00E944F0080E0B7
:1001C00091E00C944F0080E090E40E94460083E0B0
:1001D00090E40C94460080E090E40E94460080E0A9
:1001E00090E20E94460080E090E10E94460080E09C
:1001F00098E00E94460080E094E00E94460080E083
:1002000092E00E94460080E091E00E94460083E078
:1002100090E40C944600E1E6F0E080E880831082F0
:10022000A89584B7877F84BFE0E6F0E0808188618D
:100230008083108208950E940B010E94B3000E94E7
:08024000A300FDCFF894FFCFED
:00000001FF
