:100000000C943A000C944C000C944C000C944C0052
:100010000C944C000C944C000C944C000C944C0030
:100020000C944C000C944C000C944C000C944C0020
:100030000C944C000C944C000C944C000C944C0010
:100040000C944C000C944C000C944C000C944C0000
:100050000C944C000C944C000C944C000C944C00F0
:100060000C944C000C944C000C944C000C944C00E0
:100070000C944C0011241FBECFEFD4E0DEBFCDBFE7
:1000800021E0A0E0B1E001C01D92A230B207E1F78B
:100090000E94EA000C943C010C9400009C01FC01BD
:1000A000FF2795A1892F832B85A308959C01FC012F
:1000B000FF2784A1832B84A395A1892F832B85A35C
:1000C00081E00895CF93C82F2E98811125C02898DC
:1000D00080E090E20E944E0080E090E10E944E009D
:1000E00080E098E00E944E0080E094E00E944E0084
:1000F00080E092E00E944E00469880E090E80E94E6
:100100004E0083E090E10E944E0083E090E80E9460
:100110004E0083E090E227C080E090E20E944E0013
:1001200080E090E10E944E0080E098E00E944E0046
:1001300080E094E00E944E0080E092E00E944E0039
:1001400080E091E00E944E00459883E090E40E9498
:100150004E0080E090E80E944E0083E090E10E9413
:100160004E0083E090E80E944E0081E08C27CF9102
:100170000895E1E6F0E080E880831082A89584B7D6
:10018000877F84BFE0E6F0E0808188618083108211
:100190000895BC011092800085E080938100109248
:1001A000820084E89EE10E9428017093010160931F
:1001B0000001089580910001909101012091840037
:1001C0003091850028173907C8F3109285001092E6
:1001D000840008950E94B90083E090E40E945600D4
:1001E00080E090E80E94560083E090E10E94560073
:1001F00083E090E80E94560083E090E20E9456005F
:1002000080E090E40E94560080E090E20E94560058
:1002100080E090E10E94560080E098E00E94560045
:1002200080E094E00E94560080E092E00E94560038
:1002300080E091E00E94560080E590E00E94C900B5
:10024000C0E00E94DA008C2F0E946200C82FF9CF14
:10025000AA1BBB1B51E107C0AA1FBB1FA617B707EC
:1002600010F0A61BB70B881F991F5A95A9F7809508
:0C0270009095BC01CD010895F894FFCFDB
:00000001FF
