:100000000C943A000C9444000C9444000C9444006A
:100010000C9444000C9444000C9444000C94440050
:100020000C9444000C9444000C9444000C94440040
:100030000C9444000C9444000C9444000C94440030
:100040000C9444000C9444000C9444000C94440020
:100050000C9444000C9444000C9444000C94440010
:100060000C9444000C9444000C9444000C94440000
:100070000C94440011241FBECFEFD4E0DEBFCDBFEF
:100080000E94FB010C9417020C940000811102C025
:100090000C94F4010C94F601AC014770552721E053
:1000A00030E001C0220F4A95EAF733E09695879534
:1000B0003A95E1F78230910591F18330910509F489
:1000C00059C0019709F080C062307105B1F058F451
:1000D0006130710509F078C084B12095822384B91C
:1000E00085B1282311C06330710581F0643071053A
:1000F00009F06AC085B1822B0DC084B1922F909512
:10010000892384B985B1282B25B95CC085B1922F8C
:100110009095892385B984B1282B24B953C06230C6
:100120007105B1F058F46130710509F04DC087B127
:100130002095822387B988B1282311C063307105C7
:1001400081F06430710509F03FC088B1822B0DC089
:1001500087B1922F9095892387B988B1282B28B928
:1001600031C088B1922F9095892388B987B1282B07
:1001700027B928C062307105A1F050F461307105D3
:1001800019F58AB1209582238AB98BB1282310C032
:100190006330710579F064307105B1F48BB1822B55
:1001A0000DC08AB1922F909589238AB98BB1282BE3
:1001B0002BB908C08BB1922F909589238BB98AB146
:1001C000282B2AB981E0089580E00895AC0147709A
:1001D000552721E030E001C0220F4A95EAF733E0CD
:1001E000969587953A95E1F78230910549F08330ED
:1001F000910551F0019759F485B1282B25B908953F
:1002000088B1282B28B908958BB1282B2BB90895D4
:10021000AC014770552721E030E001C0220F4A951C
:10022000EAF733E0969587953A95E1F782309105A4
:1002300051F08330910561F0019771F485B12095FB
:10024000282325B9089588B12095282328B9089531
:100250008BB1209528232BB90895AC014770552701
:1002600021E030E001C0220F4A95EAF733E096958D
:1002700087953A95E1F78230910549F083309105F1
:1002800051F0019759F485B1282725B9089588B10F
:10029000282728B908958BB128272BB90895AC01D8
:1002A0004770552721E030E001C0220F4A95EAF758
:1002B00033E0969587953A95E1F78230910539F0CC
:1002C0008330910531F0019741F483B103C086B1C9
:1002D00001C089B1282381E009F480E0089561110B
:1002E0000C94E6000C940801AC014770552721E0FE
:1002F00030E001C0220F4A95EAF733E096958795E2
:100300003A95E1F78230910561F08330910581F0F3
:10031000019721F584B1822391E009F490E084B142
:100320000DC087B1822391E009F490E087B106C047
:100330008AB1822391E009F490E08AB1282381E018
:1003400009F480E0992329F081110BC083E090E04B
:100350000895811109C081E090E0089580E090E067
:10036000089584E090E0089582E090E00895AC0163
:100370004770552721E030E001C0220F4A95EAF787
:1003800033E0969587953A95E1F78230910539F0FB
:100390008330910531F0019741F485B103C088B1F4
:1003A00001C08BB1282381E009F480E00895E1E6E3
:1003B000F0E080E880831082A89584B7877F84BFAF
:1003C000E0E6F0E08081886180831082089589B141
:1003D000082E000C990B892F881F8827881F90E012
:1003E000089557985F980895429A089542980895FD
:1003F0003A9A429808950E94D7010E94F8010E94FB
:10040000F101D0E0C0E011E00E94E701892BE1F3A7
:10041000D127C1270E94E7012D2F0D2E000C330B91
:100420008217930789F38C2F0E944600EDCFF89432
:02043000FFCFFC
:00000001FF
