:100000000C943A000C9457000C9457000C94570031
:100010000C9457000C9457000C9457000C94570004
:100020000C9457000C9457000C9457000C945700F4
:100030000C9457000C9457000C9457000C945700E4
:100040000C9457000C9457000C9457000C945700D4
:100050000C9457000C9457000C9457000C945700C4
:100060000C9457000C9457000C9457000C945700B4
:100070000C94570011241FBECFEFD4E0DEBFCDBFDC
:1000800012E0A0E0B1E0E4EEFDE102C005900D92C7
:10009000AA3CB107D9F723E0AAECB2E001C01D9257
:1000A000A438B207E1F70E94640D0C94F00E0C9492
:1000B0000000FC01962F842F65E00E94D40D890F6B
:1000C000E80FF11D20830895EF92FF920F931F9385
:1000D000CF93DF938091EE0281114CC08CE291E0CE
:1000E0000E94180D84EF91E00E94970C81E090E04F
:1000F0000E948D0C81E090E00E94920C8AE00E94A8
:10010000870C06ED12E0CEECD2E09AECE92E92E0FC
:10011000F92EC8010E942F0389939993D7011D924C
:100120007D010A5F1F4FB2E0C63DDB0791F7E4E1B6
:10013000F3E087E393E011928E179F07E1F76EE0FB
:1001400071E08091D0029091D1020E94D40264E1CA
:1001500071E08091D4029091D5020E94D4026AE1AC
:1001600071E08091D2029091D3020E94D40281E08A
:100170008093EE0280910C0190910D01039749F557
:10018000C0EDD2E00BEC12E086EDE82E82E0F82E16
:10019000899199910E94E702F80181938F01EC16F1
:1001A000FD06B1F7D0E004E113E07801C0E0D7012B
:1001B000ED917D01F0E0E653FD4F6081CE010E949C
:1001C000D20ACF5FC53099F70B5F1F4FDF5FD73083
:1001D00061F7DF91CF911F910F91FF90EF900C94F9
:1001E0009C0C80911003909111030C94F008611500
:1001F000710521F06130710521F008956DE972E01B
:1002000002C060EA72E080911003909111030C9497
:10021000C6080F931F93CF93DF93CDB7DEB7AC978C
:100220000FB6F894DEBF0FBECDBF8091F1028111F1
:1002300029C00E94660761E080E00E945E0742E0FC
:1002400050E067E373E080E090E00E94B4068091A4
:1002500037038F3F21F4109237031092380304E1E3
:1002600013E029E530E047E065E084E690E00E9495
:10027000E40360E070E087EF90E00E940E0481E00C
:100280008093F10280910C0190910D0182309105D3
:1002900009F465C080F4019709F0C4C08DEA92E0CA
:1002A0000E94780C6EE971E0809110039091110327
:1002B0000E94C60851C08330910521F0049709F4CB
:1002C00043C0B0C00E9415048111ACC062EA72E064
:1002D000CE0101960E94800E8E010F5F1F4F980184
:1002E0002F5F3F4FF8018081882311F08901F7CFFC
:1002F0000E94AE0640E0B8010E94280DF8010F5F91
:100300001F4F80818111FACF8FE281938F010E946C
:10031000B10640E0B8010E94280D0E947C0BCE017E
:1003200001960E94780C65E571E080911003909130
:1003300011030E94C6081092F00261E080E00E9462
:100340005E0784E090E06AC08091F0028F5F809346
:10035000F002883C08F466C085E090E05FC00E942F
:100360007C0B809138038F5F809338038091370333
:100370008330E9F028F4813061F0823091F004C0DC
:100380008430E1F0853011F110E01E7F1D7F04E024
:1003900006C010E01E7FFFEFF0FB11F903E083E0E1
:1003A0001DC010E08FEF80FB10F91D7FF7CF10E02C
:1003B000EFEFE0FB10F9E0FB11F9F0CF10E0FFEFF9
:1003C000F0FB10F9F0FB11F903E007C010E08FEF2C
:1003D00080FB10F980FB11F902E084E00E94D50354
:1003E000802F0E94D203812F0E94E1030E943C06CD
:1003F00042E050E067E373E080E090E00E94CA06CC
:1004000066EC72E080911003909111030E94C6087F
:1004100060E080E00E945E0783E090E090930D0131
:1004200080930C01AC960FB6F894DEBF0FBECDBF23
:10043000DF91CF911F910F910895CF93DF93D62F26
:10044000C72FE7ECF2E09191992321F0DB019D9316
:10045000BD01F9CF40E00E94280D0E947C0B8D2F3A
:100460009C2FDF91CF910C94780CCF93DF93CDB775
:10047000DEB7AC970FB6F894DEBF0FBECDBF80914C
:10048000EF02811105C00E949F0881E08093EF0276
:100490000E94330881E00E9401088823D1F08091F6
:1004A0000C0190910D018330910589F0069789F434
:1004B00080913703843018F48F5F80933703BE0137
:1004C0006F5F7F4F809137030E941D0202C00E9420
:1004D000030683E00E9401088823D1F080910C017B
:1004E00090910D018330910589F0069789F48091F0
:1004F0003703823018F0815080933703BE016F5F5D
:100500007F4F809137030E941D0202C00E940606A1
:1005100083E00E940108882399F080910C0190915A
:100520000D01059769F486E090E090930D018093AA
:100530000C01BE016F5F7F4F809137030E941D0247
:1005400084E00E9401088823C1F080910C01909101
:100550000D018530910541F08630910541F00397FA
:1005600061F40E94090609C082E090E002C085E0C3
:1005700090E090930D0180930C01AC960FB6F89427
:10058000DEBF0FBECDBFDF91CF91089580911203E2
:10059000909113030E94300A882319F05C9A5E98A8
:1005A00008955C985E9A0895FC01718360831282BD
:1005B00013821482158281E00895FC01808191816B
:1005C0000895FC0112821382648381E00895FC0186
:1005D000A081B181109709F440C082818F5F82832E
:1005E0009C91891728F1128285818F5F883010F4E1
:1005F00085831EC0158283818F5F838312969C91B1
:1006000012978917A8F0138284818F5F84831596CF
:100610009C911597911109C014969C911497891774
:1006200038F01182108281E00895891708F0148251
:10063000928111968C911197981760F4938113967B
:100640008C911397981730F481E0248114969C9133
:10065000291708F080E08170089580E00895FC017A
:100660001182108212821382148215820895CF9310
:10067000DF939B01A9E3B3E09E96ED91FC919F97D8
:10068000EC0149816881D0968D919C91D197DF9141
:10069000CF910994CF93DF93EC012091450330E093
:1006A00040E0A42F042E000CBB0BA217B307C4F428
:1006B000CD0163E070E00E94DD0DFC01E75CFC4FC2
:1006C0008281882359F0EC17FD0741F090818881E1
:1006D000981304C091818981981729F04F5FE1CF69
:1006E00080E090E001C0CF01DF91CF910895CF93DA
:1006F000C82F60E070E08BE593E00E9437038091A3
:100700005B038C0F90915D0389172CF487FF04C065
:100710008FEF890F01C080E080935B0361E070E0A0
:100720008BE593E0CF910C943703E0916B03F0914C
:100730006C03309731F0BC0180916D0390916E0392
:1007400009940895DB01FC011282E9E3F3E081A53D
:10075000815081A786A18F5F86A312961C92129763
:1007600060E070E0CD010E94370380E090E00C94DF
:100770009503809366030895E9E3F3E0682F70E042
:1007800082A593A50E94FA0D768765870895E9E30F
:10079000F3E0682F70E082A593A50E94FA0D778F91
:1007A000668F0895809365030895853008F084E08E
:1007B000809345030895853008F084E080935603C4
:1007C000089580936F0308950F931F93CF93DF9342
:1007D000C9E3D3E06CA34DA33FA72EA719AB08AB89
:1007E0001FAA9BA78AA71BAA1AAAEFE6F3E080819B
:1007F0008E7F8D7F808383E08C8782E08D8F80E188
:100800000E94C70382E00E94BC0384E08CA785E0BD
:100810008DA7DF91CF911F910F910895E9E3F3E048
:1008200093AB82AB75AB64AB08958F929F92AF92FE
:10083000BF92CF92DF92EF92FF920F931F93CF93CD
:10084000DF938091590390915A03019690935A0334
:1008500080935903209157033091580382179307CF
:1008600030F4E0907003EE2009F4BFC14AC010924A
:100870005A031092590310E0E12E012E000CFF08DC
:100880008091560390E0E816F9065CF7C70163E033
:1008900070E00E94DD0DFC01E75CFC4F2389222300
:1008A00071F1EC01C65BDC4F918980915B03981379
:1008B00005C0928980915C03981729F060E070E090
:1008C000CE010E943703C70163E070E00E94DD0D96
:1008D000FC01E75CFC4F92899150928B97FD0EC012
:1008E00063E070E0CE010E943703CE010E944A030C
:1008F000009729F0BE010E94A203F7CF1A821F5F62
:10090000BBCF80914803909149030196909349038E
:100910008093480320914603309147038217930741
:1009200008F463C11092490310924803C0E02C2FD1
:100930000C2E000C330B8091450390E028173907EB
:10094000A4F4C90163E070E00E94DD0D875C9C4F58
:10095000DC0112968C911297882329F060E070E0F8
:10096000CD010E943703CF5FE2CFF12CCF2D0F2CAA
:10097000000CDD0B8091450390E0C817D9070CF0FF
:10098000CEC0CE0163E070E00E94DD0D8C01075CFB
:100990001C4FF8018281882309F4BFC081818F5FD9
:1009A00081830E94700E8170382F330F3150E09197
:1009B0006F03E1FF13C040915B03042E000C550B45
:1009C000D8012C91832F032E000C990B820F911DBF
:1009D00027FD9A954817590709F43195CE0163E030
:1009E00070E00E94DD0DDC01A75CBC4F2C91230F51
:1009F0002C9327FD04C080915D032817ECF0CE01F5
:100A000063E070E00E94DD0DE0FF10C0FC01E75CD8
:100A1000FC4F022E000C330B37FF03C0319521959C
:100A2000310990915D03921B908306C0875C9C4FB7
:100A3000330F231BFC012083CE0163E070E00E9492
:100A4000DD0D8C01075C1C4FD80111969C918091A3
:100A50005E0398172CF462E070E0C8010E9437032F
:100A6000CE0163E070E00E94DD0D875C9C4FFC01CD
:100A70002181422F022E000C550B80915E03082E1F
:100A8000000C990B019748175907A4F5E0915603FC
:100A90008E2E912C40E0A42F042E000CBB0BA81529
:100AA000B905DCF5CD0163E070E00E94DD0DFC01CD
:100AB000E75CFC4F5F0123892223D1F09C01265B78
:100AC0003C4F02171307A1F0CE0163E070E00E94D3
:100AD000DD0D875C9C4F6C019189F6018081981334
:100AE00007C0D50152969C918181981709F478C06E
:100AF0004F5FD1CF80915C03821363C0809160030C
:100B00008F5F8093600390916603891710F01092B5
:100B1000700381E090E00E949503F39427CF8091C9
:100B20006203882319F0C091650301C0C2E00E94EE
:100B3000700E6C2F70E00E940E0E892B09F055C0CC
:100B40002091450330E040E0042F042E000C110BEF
:100B5000021713070CF049C0C80163E070E00E945F
:100B6000DD0DEC01C75CDC4F8A81882311F04F5FFB
:100B7000EBCF1982FF24F3940E94700E9C01C801F0
:100B800063E070E00E94DD0DFC01E75CFC4F6091CA
:100B90005D03062E000C770BC9010E940E0E8083A8
:100BA000F282CE010E944A03892B31F780916203C1
:100BB0008F5F8093620362E070E0CE010E94370392
:100BC00014C0D80112961C928091620381508093C8
:100BD000620361E070E08BE593E00E9437039DCFF4
:100BE000B901C8010E94A20351CF8E2DDF91CF9190
:100BF0001F910F91FF90EF90DF90CF90BF90AF903B
:100C00009F908F90089581E00C9477038FEF0C9460
:100C100077032091560330E040E0E42F042E000CCF
:100C2000FF0BE217F3073CF5CF0163E070E00E9491
:100C3000DD0DDC01A75CBC4F53968C915397882344
:100C400011F04F5FEACF80915B0390915C03529665
:100C50009C938E935197CF0163E070E00E94DD0D6D
:100C6000875C9C4F21E0FC01238B809161038F5FA7
:100C700080936103089508950F931F93CF93DF939B
:100C800000D0CDB7DEB710925A03109259031092DC
:100C90004903109248032091560330E040E0842F2E
:100CA000042E000C990B8217930754F463E070E054
:100CB0000E94DD0D875C9C4FFC01138A4F5FEFCFD4
:100CC0002091450330E040E0842F042E000C990B66
:100CD0008217930754F463E070E00E94DD0D875C97
:100CE0009C4FFC0112824F5FEFCF00E080915D03CB
:100CF00008178CF410E080915E03181754F40983F0
:100D00001A8360E070E0CE0101960E9437031F5FF6
:100D1000F2CF0F5FEBCF87FD8F5F85958E7F80933E
:100D20005B0380915E03815080935C0361E070E01F
:100D30008BE593E00E9437031092620310925F03E9
:100D4000109260031092610381E0809370030F9012
:100D50000F90DF91CF911F910F91089580915F03C4
:100D600008958091610308959B01240F351FFB01B5
:100D7000861B970BBC016E0F7F1FE217F30741F034
:100D8000F999FECF72BD61BDF89A60B56193F2CF5B
:100D9000CA0108959B01240F351FFB01861B970B89
:100DA000BC016E0F7F1FE217F30749F0A191F9997B
:100DB000FECF72BD61BDA0BDFA9AF99AF1CFCA010A
:100DC0000895E1E6F0E080E880831082A89584B77A
:100DD000877F84BFE0E6F0E08081886180831082B5
:100DE00008951092800084E0809381001092850025
:100DF0001092840008958091840090918500089558
:100E0000AC0180918400909185009C01241B350BDE
:100E1000283E3340B0F7089520918400309185003A
:100E2000820F931F0C940007853098F4673088F484
:100E300021E030E001C0220F6A95EAF7E82FF0E0E8
:100E4000EE58FC4F922F9095808189234111822B7F
:100E500080830895853080F4673070F421E030E0BD
:100E600001C0220F6A95EAF7E82FF0E0EE58FC4F38
:100E70008081282381E009F480E008956091710366
:100E8000E62FF0E0EE58FC4F80810E94970780919A
:100E900071038F5F853018F4809371030895109269
:100EA00071030895E2E7F3E0108211821282138247
:100EB000148208950E9475070C945207811105C091
:100EC000662311F0429A0895429808953A9A429AF8
:100ED00008959C01FC01FF2784A1832B84A395A185
:100EE000892F832B85A381E00895CF93DF93CAE7F1
:100EF000D2E0899199910E94690782E0C838D807A9
:100F0000C1F783E090E40E94690780E090E80E94C6
:100F1000690783E090E10E94690783E090E80E94FE
:100F2000690783E090E2DF91CF910C946907E0912B
:100F30007703F0E0EE0FFF1FE059FD4F2081318174
:100F4000F901FF2795A1932B95A3EAE7F2E097E03B
:100F500020813181D901BB2795962C91959780FFEF
:100F600003C03095232301C0232B95962C9386959F
:100F7000915032969111ECCFE62FF0E0EE0FFF1F6B
:100F8000E059FD4F80819181FC01FF2785A190955B
:100F9000892385A36093770308956230710519F161
:100FA00070F46130710559F5FC01FF2724A1392F38
:100FB0003095922F932394A385A183231DC0633082
:100FC000710541F064307105D1F4FC01FF2784A163
:100FD000892B0FC0FC01FF2784A1892B84A385A145
:100FE0009095892309C0FC01FF2784A1292F209512
:100FF000822384A385A1892B85A381E0089580E0C5
:101000000895E82FF0E0EE0FFF1FE858FC4F8081B5
:10101000882321F0918181E0892702C080E090E05F
:1010200081700895E82FF0E0EE0FFF1FE858FC4FA5
:101030008081811102C0818102C080E090E08170D6
:101040000895E82FF0E0EE0FFF1FE858FC4F808175
:101050000895E82FF0E0EE0FFF1FE858FC4F908155
:1010600081E0892708957F928F929F92AF92BF92DD
:10107000CF92DF92EF92FF920F931F93CF93DF9364
:10108000C8E7D3E058E8C52E52E0D52E66E0762EAC
:1010900088818983F601019111916F015801BB2468
:1010A000F50124A1E12EFF2485A190E08E219F214E
:1010B00030E02E213F21232B31F0892B51F433E0F6
:1010C000832E912C0DC0892B41F488248394912C7C
:1010D00007C094E0892E912C03C082E0882E912CC9
:1010E00064E070E0C8010E94CD0762E070E0C801D2
:1010F0000E94CD07872D8A95F1F7F50183A190E035
:10110000E822F92281E0EF2809F080E08883B40129
:10111000C8010E94CD072296F3E0C238DF0709F02C
:10112000B7CFDF91CF911F910F91FF90EF90DF909C
:10113000CF90BF90AF909F908F907F90089508952B
:10114000FC018589968960EF70E00E94DD0D9C01AD
:101150008685648570E090E00E94DD0DBC01660F1D
:10116000771F660F771FC9010E94FA0D63830895E8
:10117000CF93DF93EC01E989FA8940E06D858B8993
:101180009C8909951D86DF91CF910895CF93DF93B8
:10119000EC0178876F837E836D831A8619861B86A0
:1011A00084E0888B8C87CE010E94A008CE010E942B
:1011B000B8081982188281E08A83DF91CF9108955F
:1011C000FC0166870C94A008FC016787089521E064
:1011D000FC0185819681892B09F420E0822F0895F6
:1011E000EF92FF920F931F93CF93DF93EC010D814A
:1011F0001E810115110509F4E5C0888199810097C8
:1012000079F0019799838883892B09F0DBC0CE019F
:10121000DF91CF911F910F91FF90EF900C94B80840
:101220008A81882309F4CEC081508A838111CAC083
:10123000F801A081A11104C0CE010E94B808C0C06D
:10124000F8014181433211F0319602C0F801329623
:1012500020812B3211F02D3211F4319601C020E0A3
:1012600030E080E08F017F019FEFE91AF90A908159
:1012700050ED590F5A3040F46AE00E94D40D80536B
:10128000890F31E0F701EECFAE33F1F094F4AA32DA
:1012900009F446C02CF4A03209F092C0E12C66C0DB
:1012A000AA3331F1AC3309F08BC0FA87E9871B868A
:1012B000BFCFA83434F4A1340CF03FC0A034A9F15E
:1012C0007FC0AB35C1F07CC02B852F5F2B87811190
:1012D00001C082E0022E000C330B90E02817390782
:1012E0000CF0A6CF09851A850115110509F0A0CFCC
:1012F0000F8118859DCF2B85022E000C330B90E0BB
:1013000001972817390709F493CF8F01819188231A
:1013100009F48ECF8B3509F48BCF8E33B1F788CF9C
:10132000882309F485CF8C8704C0882309F480CFF3
:101330008E87CE010E94A0087BCF0A2E000CBB0B2B
:10134000AF5ABD4F9C91433209F49F5F3111888B96
:101350002B3211F4945F03C02D3209F49C5088891C
:101360008F5F6CE00E94D40DE82EE90E61E08F01E2
:10137000808131968F3211F46F5FF9CFF62EFF0C1A
:10138000FF0C8E3229F48F2D8695F80E8F0104C044
:101390008C3211F48F01F694E989FA894F856E2D0C
:1013A0008B899C890995ED862C812A838B816F2DF1
:1013B00070E090E00E94DD0D821B91099983888383
:1013C0001E830D83DF91CF911F910F91FF90EF90BE
:1013D0000895FC01CB01768B658B528B418B348B4E
:1013E000238B24E62787158611821082128262E3FE
:1013F00070E00E94DD0D68EE73E00E94FA0D6483D8
:1014000084E0848788EC8687CF010895FC0161839E
:1014100042830895FC01662311F0411103C011823B
:10142000128208956832D8F028ED260F822F6CE0E2
:101430000E94EE0D982F64EF0E94D40D820FA581BB
:10144000B681A80FB11D8C91915010F08695FCCFFC
:101450008183642F70E090E00E94DD0D92830895F7
:10146000FC0180818F5F80839181891708F0108251
:1014700081E020819281291708F080E00895FC0125
:101480007483638356834583118212820895009783
:1014900089F0FC012381621B67FD09C0062E000C48
:1014A000770B248130E081E0621773070CF080E055
:1014B0008170089580E00895CF93DF93FC01892B1C
:1014C00079F18181481760F59281291748F5938158
:1014D000A62FA91BA7FD24C00A2E000CBB0BC4819C
:1014E000D0E0AC17BD07E4F4622F0E94D40D480F82
:1014F000858190E0BD010E94DD0D0696242F269582
:1015000026952695E80FF91FE20FF11D808190E0E6
:10151000477002C0959587954A95E2F7817001C0A2
:1015200080E0DF91CF910895182F092FF62E0E94A9
:10153000F1060E94FB06C12FD02F8E819F810E9451
:101540000007E881F9818A819B8109952E813F817D
:101550008C819D81820F931F9F838E830E94FB0647
:10156000BC01E12FF02F4FEF5FEF90E09F1529F3C3
:1015700026813781DB01A21BB30B9D012F3FBFE703
:101580003B0710F4EF01D9CF31952195310924178C
:10159000350710F4A901EF019F5F3896E7CF692F57
:1015A0000C942A0741E0611101C040E0692F0C94BE
:1015B00014070C94D20A5F926F927F928F929F923F
:1015C000AF92BF92CF92DF92EF92FF920F931F9351
:1015D000CF93DF93562E872E942E5C01E62EF72EA6
:1015E000C62F660FDD0BC81BD10987FDD395072FCA
:1015F000770F110B091B110997FD1395D7FF03C036
:1016000077247A9402C07724739417FF03C066246A
:101610006A9402C066246394D7FF03C0D195C19534
:10162000D10917FF03C0119501951109C017D10702
:10163000A4F06E01D594C794F92EA51411F1692D6B
:101640008A2D9F2D0E94D20AC01AD10AD7FE03C04C
:10165000CC0EDD1EF60CA70CF0CF6801D594C79414
:10166000E82EB81471F0692D8E2D9B2D0E94D20AA0
:10167000CC1ADD0AD7FE03C0C00ED11EE70CB60C93
:10168000F0CF692DC701DF91CF911F910F91FF908E
:10169000EF90DF90CF90BF90AF909F908F907F9012
:1016A0006F905F900C94D20AFF920F931F93CF9389
:1016B000DF93D82FF92E162FC72F042F792F0E94D2
:1016C000DB0A402F6D2F7C2F8D2F9F2D0E94DB0A70
:1016D000402F612F7C2F812F9F2D0E94DB0A402FEE
:1016E000612F7C2F8D2F9C2F0E94DB0ADF91CF91E1
:1016F0001F910F91FF9008950E945207E0E2F1E0E0
:10170000118A14860895DF92EF92FF920F931F9330
:10171000CF93DF93D82E7B01162F0F2D80912201BE
:1017200090912301D0E0019799F50F2D0D1BE091C9
:101730002801F09129018181C0E0D817B8F4809187
:10174000280190912901FC012281C21768F42C2FF5
:101750004D2F6D2D0E945C0A682F8E2D8C0F902FBF
:101760000E94D20ACF5FEBCFDF5FDFCFE09128018D
:10177000F09129018281C81740F460E08E2D8C0F12
:10178000902F0E94D20ACF5FF1CF015030C0DF5FAF
:101790001E2D1D0FE0912801F09129018181C0E0EB
:1017A000D817A8F48091280190912901FC01228189
:1017B000C21768F72C2F4D2F6D2D0E945C0A682FE1
:1017C000812F9F2D9C0F0E94D20ACF5FEBCFE0911B
:1017D0002801F09129018281C81740F460E0812F2F
:1017E0009F2D9C0F0E94D20ACF5FF1CF1F5F812FE8
:1017F000902FDF91CF911F910F91FF90EF90DF908D
:1018000008950F931F93CF938C01C0E0F80181914D
:101810008F01882341F00E94830BBC01CF5F85308C
:1018200014F477FFF3CF8C2FCF911F910F91089570
:101830000F931F93CF93DF9310922C0140932D01B0
:101840001092300100912801109129010115110514
:1018500009F449C09B01EC01F801818160912601E6
:101860007091270190E00E94DD0DBC0180912A015A
:1018700090912B010E94FA0DCB016AE070E00E946A
:10188000DD0D90932F0180932E013093250120933D
:10189000240140E250E0BE0181E391E00E94870E06
:1018A00080912001909121010197E9F4FE010190BE
:1018B0000020E9F73197BF016C1B7D0BF801818196
:1018C0008F5F0E94D40D815020912201309123011D
:1018D0002130310511F095E001C097E0981718F418
:1018E0008EEF80933001DF91CF911F910F9108957A
:1018F00020912201309123012130310511F070E057
:1019000001C076E04FEF60E00E94180C089590E06F
:10191000909327018093260108959093210180934D
:1019200020010895909323018093220108959093BC
:101930002901809328010895809182039091830367
:101940000196909383038093820320912E0130911E
:101950002F018217930708F469C010928303109235
:101960008203E0912C01F0E0E05EFE4F818981115D
:101970000AC080912D01823008F458C081508093B4
:101980002D0110922C0180912C0190E0FC01E05E71
:10199000FE4F2189222309F449C040912001509132
:1019A0002101209130014115510521F041305105AF
:1019B00099F024C0211122C0609124017091250169
:1019C0008F5C9E4F0E94010C90E0019790912C013A
:1019D000890F80932C0112C0609124017091250120
:1019E00040912201509123014130510511F4720FB1
:1019F00001C0621B8F5C9E4F0E94010C80913001E0
:101A00008F5F80933001082E000C990BE091280124
:101A1000F0912901218130E0281739073CF4109218
:101A2000300180912C018F5F80932C010C943E0734
:101A3000CF93DF93C0E2D1E09B878A870E945A0749
:101A400084E190E09F838E83DF91CF910C947C0B97
:101A5000CF93DF9300D000D0CDB7DEB7582FFB0176
:101A60008091990290919A02A0919B02B0919C0260
:101A700089839A83AB83BC8330E0A1E0B0E0AC0FF4
:101A8000BD1FA30FB11D2C912223B1F0852F622F12
:101A90000E94EE0D682F411104C0811102C0213057
:101AA00049F480E3860F8083822F0E94D40D581B57
:101AB000319641E03F5FE1CF10820F900F900F9081
:101AC0000F90DF91CF9108950F931F93CF93DF93E2
:101AD000CDB7DEB7A8970FB6F894DEBF0FBECDBF67
:101AE0008E010F5F1F4F88E2F80111928A95E9F786
:101AF00086EC92E09A83898386E090E09E838D83D2
:101B000081EF90E09A87898788E391E09E878D87AF
:101B100024E630E03A8B298B28E630E03E8B2D8B93
:101B200025E332E03A8F298F2AE136E03E8F2D8F70
:101B300029E031E03AA329A39EA38DA30E94E106E8
:101B400040E051E068E873E182EF92E00E943F0AD2
:101B50009093130380931203549A5C98569A5E985C
:101B600020911203309113034AE05AE064E670E0DA
:101B700089EF92E00E94E90990931103809310038A
:101B800068EC0E94E00865E0C8010E94940A80E0C9
:101B900090E0A8960FB6F894DEBF0FBECDBFDF91E0
:101BA000CF911F910F910895002480FD060E660FBE
:101BB00011F08695D1F7802D08950024552704C093
:101BC000080E591F880F991F009729F07695679581
:101BD000B8F37105B9F7802D952F0895991B79E019
:101BE00004C0991F961708F0961B881F7A95C9F7AD
:101BF00080950895AA1BBB1B51E107C0AA1FBB1FFC
:101C0000A617B70710F0A61BB70B881F991F5A9588
:101C1000A9F780959095BC01CD01089597FB072EFB
:101C200016F4009407D077FD09D00E94FA0D07FC46
:101C300005D03EF4909581959F4F089570956195DC
:101C40007F4F08958F929F92AF92BF92CF92DF9273
:101C5000EF92FF92CF93DF93EC01688179818A81C3
:101C60009B81611571058105910521F464E279ED8F
:101C70008BE597E02DE133EF41E050E00E94AF0E9D
:101C800049015A0127EA31E440E050E00E94960EF3
:101C90006B017C012CEE34EF4FEF5FEFC501B40117
:101CA0000E94960EDC01CB018C0D9D1DAE1DBF1D4B
:101CB000B7FF03C00197A109B04888839983AA831D
:101CC000BB839F77DF91CF91FF90EF90DF90CF9014
:101CD000BF90AF909F908F9008950E94220E08951C
:101CE00081E591E00E94220E0895A0E0B0E080938B
:101CF000510190935201A0935301B0935401089560
:101D0000FB01DC0101900D920020E1F70895FB0139
:101D1000DC014150504048F001900D920020C9F77D
:101D200001C01D9241505040E0F70895EE27FF2773
:101D3000AA27BB2708C0A20FB31FE41FF51F220F5D
:101D4000331F441F551F969587957795679598F390
:101D50007040A9F7009799F7BD01CF010895052EAE
:101D600097FB1EF400940E94C60E57FD07D00E94F8
:101D7000CE0E07FC03D04EF40C94C60E5095409541
:101D8000309521953F4F4F4F5F4F08959095809527
:101D9000709561957F4F8F4F9F4F0895A1E21A2E46
:101DA000AA1BBB1BFD010DC0AA1FBB1FEE1FFF1FFF
:101DB000A217B307E407F50720F0A21BB30BE40B4F
:101DC000F50B661F771F881F991F1A9469F7609596
:101DD0007095809590959B01AC01BD01CF01089550
:041DE000F894FFCFA5
:101DE4003D393633302D2B282624222001000505C9
:101DF40005050101050505050101030303010101B1
:101E040000000000000014000000000000000000BA
:101E140000000000000000000000000000000000BE
:101E240000000000000000000000000000000000AE
:101E340000010000002A383C472F2F2F3E333C443A
:101E4400232F2F4123472F2F2F3E32202F2F2F4474
:101E54002B2F2F2F442B2F2F2F442B2F2F2F442367
:101E64002B2F2F412346232F2F2F44232F2F412362
:101E7400472F2F2F202F2F2F202020203E002A38BD
:101E8400453345424245324542334244444141444C
:101E94003444413341413241453345414142424357
:101EA4003443423342414147474545424245324526
:101EB4004233424444414144344441334141324138
:101EC4004533454141424243344342334241414216
:101ED400423E2000010305203B0200009220EB73E8
:101EE4007D5FDE3DA552EA7A14004A222229BA2EE9
:101EF400D0050014C0010020A4126A2B9A74A372A6
:101F0400A338ED498F38CE2AA712AA2AAE49100465
:101F140010145444380E11152A250000EA5BEB3ADC
:101F24004F726B3BCF73CF134F7AED5B9774247B67
:101F34005D564972FD5B6F5B6F7BEF136F7FEF57ED
:101F4400CE3897246D7B6D2BED5FAD5AAD24A7720F
:101F54000340008003100380032000400020001091
:101F640000080004000200010380034003200080F5
:101F74000310090B0002040507640A0100432B0047
:101F8400430047414D45204F564552200053504190
:101F94004345592052454144592056312E3620425A
:0A1FA40059204D504820004C000069
:00000001FF
