:100000000C943A000C944C000C944C000C944C0052
:100010000C944C000C944C000C944C000C944C0030
:100020000C944C000C944C000C944C000C944C0020
:100030000C944C000C944C000C944C000C944C0010
:100040000C944C000C944C000C944C000C944C0000
:100050000C944C000C944C000C944C000C944C00F0
:100060000C944C000C944C000C944C000C944C00E0
:100070000C944C0011241FBECFEFD4E0DEBFCDBFE7
:1000800021E0A0E0B1E001C01D92A230B207E1F78B
:100090000E948A000C94B1000C940000E1E6F0E0AC
:1000A00080E880831082A89584B7877F84BFE0E6CC
:1000B000F0E080818861808310820895811105C0FD
:1000C000662311F0429A0895429808953A9A429A06
:1000D0000895BC011092800085E080938100109209
:1000E000820084E89EE10E949D007093010160936C
:1000F00000010895809100019091010120918400F8
:100100003091850028173907C8F3109285001092A6
:10011000840008950E944E000E94660082E090E0F4
:100120000E946900C0E0D1E00E947A006C2F6170EB
:1001300080E00E945E00CD27F7CFAA1BBB1B51E1D8
:1001400007C0AA1FBB1FA617B70710F0A61BB70B47
:10015000881F991F5A95A9F780959095BC01CD01EC
:060160000895F894FFCFA2
:00000001FF
